{
    "_format": "hh-sol-artifact-1",
    "contractName": "LimitedBidsShotgun",
    "sourceName": "contracts/LimitedBidsShotgun.sol",
    "abi": [
        {
            "inputs": [
                {
                    "internalType": "address",
                    "name": "_nft",
                    "type": "address"
                },
                {
                    "internalType": "uint256",
                    "name": "_tokenId",
                    "type": "uint256"
                },
                {
                    "internalType": "address",
                    "name": "_ownerA",
                    "type": "address"
                },
                {
                    "internalType": "address",
                    "name": "_ownerB",
                    "type": "address"
                },
                {
                    "internalType": "uint256",
                    "name": "_maxBids",
                    "type": "uint256"
                }
            ],
            "stateMutability": "nonpayable",
            "type": "constructor"
        },
        {
            "inputs": [
                {
                    "internalType": "address",
                    "name": "",
                    "type": "address"
                }
            ],
            "name": "balances",
            "outputs": [
                {
                    "internalType": "uint256",
                    "name": "",
                    "type": "uint256"
                }
            ],
            "stateMutability": "view",
            "type": "function"
        },
        {
            "inputs": [],
            "name": "bidsCount",
            "outputs": [
                {
                    "internalType": "uint256",
                    "name": "",
                    "type": "uint256"
                }
            ],
            "stateMutability": "view",
            "type": "function"
        },
        {
            "inputs": [
                {
                    "internalType": "uint256",
                    "name": "newPrice",
                    "type": "uint256"
                }
            ],
            "name": "counterOffer",
            "outputs": [],
            "stateMutability": "payable",
            "type": "function"
        },
        {
            "inputs": [],
            "name": "currentPrice",
            "outputs": [
                {
                    "internalType": "uint256",
                    "name": "",
                    "type": "uint256"
                }
            ],
            "stateMutability": "view",
            "type": "function"
        },
        {
            "inputs": [],
            "name": "finish",
            "outputs": [],
            "stateMutability": "nonpayable",
            "type": "function"
        },
        {
            "inputs": [
                {
                    "internalType": "uint256",
                    "name": "price",
                    "type": "uint256"
                }
            ],
            "name": "initiate",
            "outputs": [],
            "stateMutability": "payable",
            "type": "function"
        },
        {
            "inputs": [],
            "name": "initiator",
            "outputs": [
                {
                    "internalType": "address",
                    "name": "",
                    "type": "address"
                }
            ],
            "stateMutability": "view",
            "type": "function"
        },
        {
            "inputs": [],
            "name": "maxBids",
            "outputs": [
                {
                    "internalType": "uint256",
                    "name": "",
                    "type": "uint256"
                }
            ],
            "stateMutability": "view",
            "type": "function"
        },
        {
            "inputs": [],
            "name": "nft",
            "outputs": [
                {
                    "internalType": "contract IERC721",
                    "name": "",
                    "type": "address"
                }
            ],
            "stateMutability": "view",
            "type": "function"
        },
        {
            "inputs": [],
            "name": "ownerA",
            "outputs": [
                {
                    "internalType": "address",
                    "name": "",
                    "type": "address"
                }
            ],
            "stateMutability": "view",
            "type": "function"
        },
        {
            "inputs": [],
            "name": "ownerB",
            "outputs": [
                {
                    "internalType": "address",
                    "name": "",
                    "type": "address"
                }
            ],
            "stateMutability": "view",
            "type": "function"
        },
        {
            "inputs": [],
            "name": "state",
            "outputs": [
                {
                    "internalType": "enum LimitedBidsShotgun.State",
                    "name": "",
                    "type": "uint8"
                }
            ],
            "stateMutability": "view",
            "type": "function"
        },
        {
            "inputs": [],
            "name": "tokenId",
            "outputs": [
                {
                    "internalType": "uint256",
                    "name": "",
                    "type": "uint256"
                }
            ],
            "stateMutability": "view",
            "type": "function"
        },
        {
            "inputs": [],
            "name": "withdraw",
            "outputs": [],
            "stateMutability": "nonpayable",
            "type": "function"
        }
    ],
    "bytecode": "0x60806040523480156200001157600080fd5b50604051620018f0380380620018f08339818101604052810190620000379190620001e5565b846000806101000a81548173ffffffffffffffffffffffffffffffffffffffff021916908373ffffffffffffffffffffffffffffffffffffffff1602179055508360018190555082600260006101000a81548173ffffffffffffffffffffffffffffffffffffffff021916908373ffffffffffffffffffffffffffffffffffffffff16021790555081600360006101000a81548173ffffffffffffffffffffffffffffffffffffffff021916908373ffffffffffffffffffffffffffffffffffffffff160217905550806004819055506000600760006101000a81548160ff0219169083600281111562000130576200012f6200026d565b5b021790555050505050506200029c565b600080fd5b600073ffffffffffffffffffffffffffffffffffffffff82169050919050565b6000620001728262000145565b9050919050565b620001848162000165565b81146200019057600080fd5b50565b600081519050620001a48162000179565b92915050565b6000819050919050565b620001bf81620001aa565b8114620001cb57600080fd5b50565b600081519050620001df81620001b4565b92915050565b600080600080600060a0868803121562000204576200020362000140565b5b6000620002148882890162000193565b95505060206200022788828901620001ce565b94505060406200023a8882890162000193565b93505060606200024d8882890162000193565b92505060806200026088828901620001ce565b9150509295509295909350565b7f4e487b7100000000000000000000000000000000000000000000000000000000600052602160045260246000fd5b61164480620002ac6000396000f3fe6080604052600436106100dd5760003560e01c80637901ea781161007f578063c19d93fb11610059578063c19d93fb1461027f578063d56b2889146102aa578063e06f3d38146102c1578063e47e5527146102ec576100dd565b80637901ea781461020d5780639d1b464a146102295780639f235ccd14610254576100dd565b80633ccfd60b116100bb5780633ccfd60b146101755780633fbffcef1461018c57806347ccca02146101b75780635c39fcc1146101e2576100dd565b806317d70f7c146100e257806327e235e31461010d57806330993b2d1461014a575b600080fd5b3480156100ee57600080fd5b506100f7610308565b6040516101049190610d2f565b60405180910390f35b34801561011957600080fd5b50610134600480360381019061012f9190610dad565b61030e565b6040516101419190610d2f565b60405180910390f35b34801561015657600080fd5b5061015f610326565b60405161016c9190610de9565b60405180910390f35b34801561018157600080fd5b5061018a61034c565b005b34801561019857600080fd5b506101a16104d7565b6040516101ae9190610d2f565b60405180910390f35b3480156101c357600080fd5b506101cc6104dd565b6040516101d99190610e63565b60405180910390f35b3480156101ee57600080fd5b506101f7610501565b6040516102049190610de9565b60405180910390f35b61022760048036038101906102229190610eaa565b610527565b005b34801561023557600080fd5b5061023e6107a7565b60405161024b9190610d2f565b60405180910390f35b34801561026057600080fd5b506102696107ad565b6040516102769190610d2f565b60405180910390f35b34801561028b57600080fd5b506102946107b3565b6040516102a19190610f4e565b60405180910390f35b3480156102b657600080fd5b506102bf6107c6565b005b3480156102cd57600080fd5b506102d66109ac565b6040516102e39190610de9565b60405180910390f35b61030660048036038101906103019190610eaa565b6109d2565b005b60015481565b60086020528060005260406000206000915090505481565b600360009054906101000a900473ffffffffffffffffffffffffffffffffffffffff1681565b60028081111561035f5761035e610ed7565b5b600760009054906101000a900460ff16600281111561038157610380610ed7565b5b146103c1576040517f08c379a00000000000000000000000000000000000000000000000000000000081526004016103b890610fc6565b60405180910390fd5b6000600860003373ffffffffffffffffffffffffffffffffffffffff1673ffffffffffffffffffffffffffffffffffffffff16815260200190815260200160002054905060008111610448576040517f08c379a000000000000000000000000000000000000000000000000000000000815260040161043f90611032565b60405180910390fd5b6000600860003373ffffffffffffffffffffffffffffffffffffffff1673ffffffffffffffffffffffffffffffffffffffff168152602001908152602001600020819055503373ffffffffffffffffffffffffffffffffffffffff166108fc829081150290604051600060405180830381858888f193505050501580156104d3573d6000803e3d6000fd5b5050565b60065481565b60008054906101000a900473ffffffffffffffffffffffffffffffffffffffff1681565b600760019054906101000a900473ffffffffffffffffffffffffffffffffffffffff1681565b6000600281111561053b5761053a610ed7565b5b600760009054906101000a900460ff16600281111561055d5761055c610ed7565b5b1461059d576040517f08c379a00000000000000000000000000000000000000000000000000000000081526004016105949061109e565b60405180910390fd5b600260009054906101000a900473ffffffffffffffffffffffffffffffffffffffff1673ffffffffffffffffffffffffffffffffffffffff163373ffffffffffffffffffffffffffffffffffffffff1614806106465750600360009054906101000a900473ffffffffffffffffffffffffffffffffffffffff1673ffffffffffffffffffffffffffffffffffffffff163373ffffffffffffffffffffffffffffffffffffffff16145b610685576040517f08c379a000000000000000000000000000000000000000000000000000000000815260040161067c9061110a565b60405180910390fd5b806002346106939190611159565b146106d3576040517f08c379a00000000000000000000000000000000000000000000000000000000081526004016106ca906111e7565b60405180910390fd5b80600581905550600060068190555033600760016101000a81548173ffffffffffffffffffffffffffffffffffffffff021916908373ffffffffffffffffffffffffffffffffffffffff16021790555034600860003373ffffffffffffffffffffffffffffffffffffffff1673ffffffffffffffffffffffffffffffffffffffff16815260200190815260200160002060008282546107729190611207565b925050819055506001600760006101000a81548160ff0219169083600281111561079f5761079e610ed7565b5b021790555050565b60055481565b60045481565b600760009054906101000a900460ff1681565b600160028111156107da576107d9610ed7565b5b600760009054906101000a900460ff1660028111156107fc576107fb610ed7565b5b1461083c576040517f08c379a000000000000000000000000000000000000000000000000000000000815260040161083390611287565b60405180910390fd5b600760019054906101000a900473ffffffffffffffffffffffffffffffffffffffff1673ffffffffffffffffffffffffffffffffffffffff163373ffffffffffffffffffffffffffffffffffffffff16146108cc576040517f08c379a00000000000000000000000000000000000000000000000000000000081526004016108c3906112f3565b60405180910390fd5b60008054906101000a900473ffffffffffffffffffffffffffffffffffffffff1673ffffffffffffffffffffffffffffffffffffffff166323b872dd30600760019054906101000a900473ffffffffffffffffffffffffffffffffffffffff166001546040518463ffffffff1660e01b815260040161094d93929190611313565b600060405180830381600087803b15801561096757600080fd5b505af115801561097b573d6000803e3d6000fd5b505050506002600760006101000a81548160ff021916908360028111156109a5576109a4610ed7565b5b0217905550565b600260009054906101000a900473ffffffffffffffffffffffffffffffffffffffff1681565b600160028111156109e6576109e5610ed7565b5b600760009054906101000a900460ff166002811115610a0857610a07610ed7565b5b14610a48576040517f08c379a0000000000000000000000000000000000000000000000000000000008152600401610a3f90611287565b60405180910390fd5b600260009054906101000a900473ffffffffffffffffffffffffffffffffffffffff1673ffffffffffffffffffffffffffffffffffffffff163373ffffffffffffffffffffffffffffffffffffffff161480610af15750600360009054906101000a900473ffffffffffffffffffffffffffffffffffffffff1673ffffffffffffffffffffffffffffffffffffffff163373ffffffffffffffffffffffffffffffffffffffff16145b610b30576040517f08c379a0000000000000000000000000000000000000000000000000000000008152600401610b2790611396565b60405180910390fd5b600760019054906101000a900473ffffffffffffffffffffffffffffffffffffffff1673ffffffffffffffffffffffffffffffffffffffff163373ffffffffffffffffffffffffffffffffffffffff1603610bc0576040517f08c379a0000000000000000000000000000000000000000000000000000000008152600401610bb790611402565b60405180910390fd5b6005548111610c04576040517f08c379a0000000000000000000000000000000000000000000000000000000008152600401610bfb9061146e565b60405180910390fd5b60045460065410610c4a576040517f08c379a0000000000000000000000000000000000000000000000000000000008152600401610c41906114da565b60405180910390fd5b6000600282610c599190611529565b9050803414610c9d576040517f08c379a0000000000000000000000000000000000000000000000000000000008152600401610c94906115a6565b60405180910390fd5b8160058190555034600860003373ffffffffffffffffffffffffffffffffffffffff1673ffffffffffffffffffffffffffffffffffffffff1681526020019081526020016000206000828254610cf39190611207565b9250508190555060066000815480929190610d0d906115c6565b91905055505050565b6000819050919050565b610d2981610d16565b82525050565b6000602082019050610d446000830184610d20565b92915050565b600080fd5b600073ffffffffffffffffffffffffffffffffffffffff82169050919050565b6000610d7a82610d4f565b9050919050565b610d8a81610d6f565b8114610d9557600080fd5b50565b600081359050610da781610d81565b92915050565b600060208284031215610dc357610dc2610d4a565b5b6000610dd184828501610d98565b91505092915050565b610de381610d6f565b82525050565b6000602082019050610dfe6000830184610dda565b92915050565b6000819050919050565b6000610e29610e24610e1f84610d4f565b610e04565b610d4f565b9050919050565b6000610e3b82610e0e565b9050919050565b6000610e4d82610e30565b9050919050565b610e5d81610e42565b82525050565b6000602082019050610e786000830184610e54565b92915050565b610e8781610d16565b8114610e9257600080fd5b50565b600081359050610ea481610e7e565b92915050565b600060208284031215610ec057610ebf610d4a565b5b6000610ece84828501610e95565b91505092915050565b7f4e487b7100000000000000000000000000000000000000000000000000000000600052602160045260246000fd5b60038110610f1757610f16610ed7565b5b50565b6000819050610f2882610f06565b919050565b6000610f3882610f1a565b9050919050565b610f4881610f2d565b82525050565b6000602082019050610f636000830184610f3f565b92915050565b600082825260208201905092915050565b7f4e6f742066696e69736865640000000000000000000000000000000000000000600082015250565b6000610fb0600c83610f69565b9150610fbb82610f7a565b602082019050919050565b60006020820190508181036000830152610fdf81610fa3565b9050919050565b7f4e6f7468696e6720746f20776974686472617700000000000000000000000000600082015250565b600061101c601383610f69565b915061102782610fe6565b602082019050919050565b6000602082019050818103600083015261104b8161100f565b9050919050565b7f416c726561647920616374697665000000000000000000000000000000000000600082015250565b6000611088600e83610f69565b915061109382611052565b602082019050919050565b600060208201905081810360008301526110b78161107b565b9050919050565b7f4e6f7420616e206f776e65720000000000000000000000000000000000000000600082015250565b60006110f4600c83610f69565b91506110ff826110be565b602082019050919050565b60006020820190508181036000830152611123816110e7565b9050919050565b7f4e487b7100000000000000000000000000000000000000000000000000000000600052601160045260246000fd5b600061116482610d16565b915061116f83610d16565b925082820261117d81610d16565b915082820484148315176111945761119361112a565b5b5092915050565b7f4e6565642068616c66206f662070726963650000000000000000000000000000600082015250565b60006111d1601283610f69565b91506111dc8261119b565b602082019050919050565b60006020820190508181036000830152611200816111c4565b9050919050565b600061121282610d16565b915061121d83610d16565b92508282019050808211156112355761123461112a565b5b92915050565b7f4e6f742061637469766500000000000000000000000000000000000000000000600082015250565b6000611271600a83610f69565b915061127c8261123b565b602082019050919050565b600060208201905081810360008301526112a081611264565b9050919050565b7f4f6e6c7920696e69746961746f72000000000000000000000000000000000000600082015250565b60006112dd600e83610f69565b91506112e8826112a7565b602082019050919050565b6000602082019050818103600083015261130c816112d0565b9050919050565b60006060820190506113286000830186610dda565b6113356020830185610dda565b6113426040830184610d20565b949350505050565b7f4e6f742061207061727469636970616e74000000000000000000000000000000600082015250565b6000611380601183610f69565b915061138b8261134a565b602082019050919050565b600060208201905081810360008301526113af81611373565b9050919050565b7f496e69746961746f722063616e6e6f7420636f756e7465720000000000000000600082015250565b60006113ec601883610f69565b91506113f7826113b6565b602082019050919050565b6000602082019050818103600083015261141b816113df565b9050919050565b7f507269636520746f6f206c6f7700000000000000000000000000000000000000600082015250565b6000611458600d83610f69565b915061146382611422565b602082019050919050565b600060208201905081810360008301526114878161144b565b9050919050565b7f426964206c696d69742072656163686564000000000000000000000000000000600082015250565b60006114c4601183610f69565b91506114cf8261148e565b602082019050919050565b600060208201905081810360008301526114f3816114b7565b9050919050565b7f4e487b7100000000000000000000000000000000000000000000000000000000600052601260045260246000fd5b600061153482610d16565b915061153f83610d16565b92508261154f5761154e6114fa565b5b828204905092915050565b7f4e6565642068616c66206f66206e657720707269636500000000000000000000600082015250565b6000611590601683610f69565b915061159b8261155a565b602082019050919050565b600060208201905081810360008301526115bf81611583565b9050919050565b60006115d182610d16565b91507fffffffffffffffffffffffffffffffffffffffffffffffffffffffffffffffff82036116035761160261112a565b5b60018201905091905056fea2646970667358221220e515a2a69d3840b57cf6204467bb687e8bfc1985515876cf40761eafdbac91c364736f6c63430008140033",
    "linkReferences": {},
    "deployedLinkReferences": {}
}