{
    "_format": "hh-sol-artifact-1",
    "contractName": "MockNFT",
    "sourceName": "contracts/MockNFT.sol",
    "abi": [
        {
            "inputs": [],
            "stateMutability": "nonpayable",
            "type": "constructor"
        },
        {
            "anonymous": false,
            "inputs": [
                {
                    "indexed": true,
                    "internalType": "address",
                    "name": "owner",
                    "type": "address"
                },
                {
                    "indexed": true,
                    "internalType": "address",
                    "name": "approved",
                    "type": "address"
                },
                {
                    "indexed": true,
                    "internalType": "uint256",
                    "name": "tokenId",
                    "type": "uint256"
                }
            ],
            "name": "Approval",
            "type": "event"
        },
        {
            "anonymous": false,
            "inputs": [
                {
                    "indexed": true,
                    "internalType": "address",
                    "name": "owner",
                    "type": "address"
                },
                {
                    "indexed": true,
                    "internalType": "address",
                    "name": "operator",
                    "type": "address"
                },
                {
                    "indexed": false,
                    "internalType": "bool",
                    "name": "approved",
                    "type": "bool"
                }
            ],
            "name": "ApprovalForAll",
            "type": "event"
        },
        {
            "anonymous": false,
            "inputs": [
                {
                    "indexed": true,
                    "internalType": "address",
                    "name": "from",
                    "type": "address"
                },
                {
                    "indexed": true,
                    "internalType": "address",
                    "name": "to",
                    "type": "address"
                },
                {
                    "indexed": true,
                    "internalType": "uint256",
                    "name": "tokenId",
                    "type": "uint256"
                }
            ],
            "name": "Transfer",
            "type": "event"
        },
        {
            "inputs": [
                {
                    "internalType": "address",
                    "name": "to",
                    "type": "address"
                },
                {
                    "internalType": "uint256",
                    "name": "tokenId",
                    "type": "uint256"
                }
            ],
            "name": "approve",
            "outputs": [],
            "stateMutability": "nonpayable",
            "type": "function"
        },
        {
            "inputs": [
                {
                    "internalType": "address",
                    "name": "owner",
                    "type": "address"
                }
            ],
            "name": "balanceOf",
            "outputs": [
                {
                    "internalType": "uint256",
                    "name": "",
                    "type": "uint256"
                }
            ],
            "stateMutability": "view",
            "type": "function"
        },
        {
            "inputs": [
                {
                    "internalType": "uint256",
                    "name": "tokenId",
                    "type": "uint256"
                }
            ],
            "name": "getApproved",
            "outputs": [
                {
                    "internalType": "address",
                    "name": "",
                    "type": "address"
                }
            ],
            "stateMutability": "view",
            "type": "function"
        },
        {
            "inputs": [
                {
                    "internalType": "address",
                    "name": "owner",
                    "type": "address"
                },
                {
                    "internalType": "address",
                    "name": "operator",
                    "type": "address"
                }
            ],
            "name": "isApprovedForAll",
            "outputs": [
                {
                    "internalType": "bool",
                    "name": "",
                    "type": "bool"
                }
            ],
            "stateMutability": "view",
            "type": "function"
        },
        {
            "inputs": [
                {
                    "internalType": "address",
                    "name": "to",
                    "type": "address"
                }
            ],
            "name": "mint",
            "outputs": [
                {
                    "internalType": "uint256",
                    "name": "",
                    "type": "uint256"
                }
            ],
            "stateMutability": "nonpayable",
            "type": "function"
        },
        {
            "inputs": [],
            "name": "name",
            "outputs": [
                {
                    "internalType": "string",
                    "name": "",
                    "type": "string"
                }
            ],
            "stateMutability": "view",
            "type": "function"
        },
        {
            "inputs": [],
            "name": "nextTokenId",
            "outputs": [
                {
                    "internalType": "uint256",
                    "name": "",
                    "type": "uint256"
                }
            ],
            "stateMutability": "view",
            "type": "function"
        },
        {
            "inputs": [
                {
                    "internalType": "uint256",
                    "name": "tokenId",
                    "type": "uint256"
                }
            ],
            "name": "ownerOf",
            "outputs": [
                {
                    "internalType": "address",
                    "name": "",
                    "type": "address"
                }
            ],
            "stateMutability": "view",
            "type": "function"
        },
        {
            "inputs": [
                {
                    "internalType": "address",
                    "name": "from",
                    "type": "address"
                },
                {
                    "internalType": "address",
                    "name": "to",
                    "type": "address"
                },
                {
                    "internalType": "uint256",
                    "name": "tokenId",
                    "type": "uint256"
                }
            ],
            "name": "safeTransferFrom",
            "outputs": [],
            "stateMutability": "nonpayable",
            "type": "function"
        },
        {
            "inputs": [
                {
                    "internalType": "address",
                    "name": "from",
                    "type": "address"
                },
                {
                    "internalType": "address",
                    "name": "to",
                    "type": "address"
                },
                {
                    "internalType": "uint256",
                    "name": "tokenId",
                    "type": "uint256"
                },
                {
                    "internalType": "bytes",
                    "name": "data",
                    "type": "bytes"
                }
            ],
            "name": "safeTransferFrom",
            "outputs": [],
            "stateMutability": "nonpayable",
            "type": "function"
        },
        {
            "inputs": [
                {
                    "internalType": "address",
                    "name": "operator",
                    "type": "address"
                },
                {
                    "internalType": "bool",
                    "name": "approved",
                    "type": "bool"
                }
            ],
            "name": "setApprovalForAll",
            "outputs": [],
            "stateMutability": "nonpayable",
            "type": "function"
        },
        {
            "inputs": [
                {
                    "internalType": "bytes4",
                    "name": "interfaceId",
                    "type": "bytes4"
                }
            ],
            "name": "supportsInterface",
            "outputs": [
                {
                    "internalType": "bool",
                    "name": "",
                    "type": "bool"
                }
            ],
            "stateMutability": "view",
            "type": "function"
        },
        {
            "inputs": [],
            "name": "symbol",
            "outputs": [
                {
                    "internalType": "string",
                    "name": "",
                    "type": "string"
                }
            ],
            "stateMutability": "view",
            "type": "function"
        },
        {
            "inputs": [
                {
                    "internalType": "uint256",
                    "name": "tokenId",
                    "type": "uint256"
                }
            ],
            "name": "tokenURI",
            "outputs": [
                {
                    "internalType": "string",
                    "name": "",
                    "type": "string"
                }
            ],
            "stateMutability": "view",
            "type": "function"
        },
        {
            "inputs": [
                {
                    "internalType": "address",
                    "name": "from",
                    "type": "address"
                },
                {
                    "internalType": "address",
                    "name": "to",
                    "type": "address"
                },
                {
                    "internalType": "uint256",
                    "name": "tokenId",
                    "type": "uint256"
                }
            ],
            "name": "transferFrom",
            "outputs": [],
            "stateMutability": "nonpayable",
            "type": "function"
        }
    ],
    "bytecode": "0x60806040523480156200001157600080fd5b506040518060400160405280600781526020017f4d6f636b4e4654000000000000000000000000000000000000000000000000008152506040518060400160405280600481526020017f4d4e46540000000000000000000000000000000000000000000000000000000081525081600090816200008f919062000324565b508060019081620000a1919062000324565b5050506200040b565b600081519050919050565b7f4e487b7100000000000000000000000000000000000000000000000000000000600052604160045260246000fd5b7f4e487b7100000000000000000000000000000000000000000000000000000000600052602260045260246000fd5b600060028204905060018216806200012c57607f821691505b602082108103620001425762000141620000e4565b5b50919050565b60008190508160005260206000209050919050565b60006020601f8301049050919050565b600082821b905092915050565b600060088302620001ac7fffffffffffffffffffffffffffffffffffffffffffffffffffffffffffffffff826200016d565b620001b886836200016d565b95508019841693508086168417925050509392505050565b6000819050919050565b6000819050919050565b600062000205620001ff620001f984620001d0565b620001da565b620001d0565b9050919050565b6000819050919050565b6200022183620001e4565b6200023962000230826200020c565b8484546200017a565b825550505050565b600090565b6200025062000241565b6200025d81848462000216565b505050565b5b8181101562000285576200027960008262000246565b60018101905062000263565b5050565b601f821115620002d4576200029e8162000148565b620002a9846200015d565b81016020851015620002b9578190505b620002d1620002c8856200015d565b83018262000262565b50505b505050565b600082821c905092915050565b6000620002f960001984600802620002d9565b1980831691505092915050565b6000620003148383620002e6565b9150826002028217905092915050565b6200032f82620000aa565b67ffffffffffffffff8111156200034b576200034a620000b5565b5b62000357825462000113565b6200036482828562000289565b600060209050601f8311600181146200039c576000841562000387578287015190505b62000393858262000306565b86555062000403565b601f198416620003ac8662000148565b60005b82811015620003d657848901518255600182019150602085019450602081019050620003af565b86831015620003f65784890151620003f2601f891682620002e6565b8355505b6001600288020188555050505b505050505050565b612539806200041b6000396000f3fe608060405234801561001057600080fd5b50600436106100f55760003560e01c80636a62784211610097578063a22cb46511610066578063a22cb46514610298578063b88d4fde146102b4578063c87b56dd146102d0578063e985e9c514610300576100f5565b80636a627842146101fc57806370a082311461022c57806375794a3c1461025c57806395d89b411461027a576100f5565b8063095ea7b3116100d3578063095ea7b31461017857806323b872dd1461019457806342842e0e146101b05780636352211e146101cc576100f5565b806301ffc9a7146100fa57806306fdde031461012a578063081812fc14610148575b600080fd5b610114600480360381019061010f91906117be565b610330565b6040516101219190611806565b60405180910390f35b610132610412565b60405161013f91906118b1565b60405180910390f35b610162600480360381019061015d9190611909565b6104a4565b60405161016f9190611977565b60405180910390f35b610192600480360381019061018d91906119be565b6104ea565b005b6101ae60048036038101906101a991906119fe565b610601565b005b6101ca60048036038101906101c591906119fe565b610661565b005b6101e660048036038101906101e19190611909565b610681565b6040516101f39190611977565b60405180910390f35b61021660048036038101906102119190611a51565b610707565b6040516102239190611a8d565b60405180910390f35b61024660048036038101906102419190611a51565b61073a565b6040516102539190611a8d565b60405180910390f35b6102646107f1565b6040516102719190611a8d565b60405180910390f35b6102826107f7565b60405161028f91906118b1565b60405180910390f35b6102b260048036038101906102ad9190611ad4565b610889565b005b6102ce60048036038101906102c99190611c49565b61089f565b005b6102ea60048036038101906102e59190611909565b610901565b6040516102f791906118b1565b60405180910390f35b61031a60048036038101906103159190611ccc565b610969565b6040516103279190611806565b60405180910390f35b60007f80ac58cd000000000000000000000000000000000000000000000000000000007bffffffffffffffffffffffffffffffffffffffffffffffffffffffff1916827bffffffffffffffffffffffffffffffffffffffffffffffffffffffff191614806103fb57507f5b5e139f000000000000000000000000000000000000000000000000000000007bffffffffffffffffffffffffffffffffffffffffffffffffffffffff1916827bffffffffffffffffffffffffffffffffffffffffffffffffffffffff1916145b8061040b575061040a826109fd565b5b9050919050565b60606000805461042190611d3b565b80601f016020809104026020016040519081016040528092919081815260200182805461044d90611d3b565b801561049a5780601f1061046f5761010080835404028352916020019161049a565b820191906000526020600020905b81548152906001019060200180831161047d57829003601f168201915b5050505050905090565b60006104af82610a67565b6004600083815260200190815260200160002060009054906101000a900473ffffffffffffffffffffffffffffffffffffffff169050919050565b60006104f582610681565b90508073ffffffffffffffffffffffffffffffffffffffff168373ffffffffffffffffffffffffffffffffffffffff1603610565576040517f08c379a000000000000000000000000000000000000000000000000000000000815260040161055c90611dde565b60405180910390fd5b8073ffffffffffffffffffffffffffffffffffffffff16610584610ab2565b73ffffffffffffffffffffffffffffffffffffffff1614806105b357506105b2816105ad610ab2565b610969565b5b6105f2576040517f08c379a00000000000000000000000000000000000000000000000000000000081526004016105e990611e70565b60405180910390fd5b6105fc8383610aba565b505050565b61061261060c610ab2565b82610b73565b610651576040517f08c379a000000000000000000000000000000000000000000000000000000000815260040161064890611f02565b60405180910390fd5b61065c838383610c08565b505050565b61067c8383836040518060200160405280600081525061089f565b505050565b60008061068d83610f01565b9050600073ffffffffffffffffffffffffffffffffffffffff168173ffffffffffffffffffffffffffffffffffffffff16036106fe576040517f08c379a00000000000000000000000000000000000000000000000000000000081526004016106f590611f6e565b60405180910390fd5b80915050919050565b60008060065490506006600081548092919061072290611fbd565b91905055506107318382610f3e565b80915050919050565b60008073ffffffffffffffffffffffffffffffffffffffff168273ffffffffffffffffffffffffffffffffffffffff16036107aa576040517f08c379a00000000000000000000000000000000000000000000000000000000081526004016107a190612077565b60405180910390fd5b600360008373ffffffffffffffffffffffffffffffffffffffff1673ffffffffffffffffffffffffffffffffffffffff168152602001908152602001600020549050919050565b60065481565b60606001805461080690611d3b565b80601f016020809104026020016040519081016040528092919081815260200182805461083290611d3b565b801561087f5780601f106108545761010080835404028352916020019161087f565b820191906000526020600020905b81548152906001019060200180831161086257829003601f168201915b5050505050905090565b61089b610894610ab2565b838361115b565b5050565b6108b06108aa610ab2565b83610b73565b6108ef576040517f08c379a00000000000000000000000000000000000000000000000000000000081526004016108e690611f02565b60405180910390fd5b6108fb848484846112c7565b50505050565b606061090c82610a67565b6000610916611323565b905060008151116109365760405180602001604052806000815250610961565b806109408461133a565b6040516020016109519291906120d3565b6040516020818303038152906040525b915050919050565b6000600560008473ffffffffffffffffffffffffffffffffffffffff1673ffffffffffffffffffffffffffffffffffffffff16815260200190815260200160002060008373ffffffffffffffffffffffffffffffffffffffff1673ffffffffffffffffffffffffffffffffffffffff16815260200190815260200160002060009054906101000a900460ff16905092915050565b60007f01ffc9a7000000000000000000000000000000000000000000000000000000007bffffffffffffffffffffffffffffffffffffffffffffffffffffffff1916827bffffffffffffffffffffffffffffffffffffffffffffffffffffffff1916149050919050565b610a7081611408565b610aaf576040517f08c379a0000000000000000000000000000000000000000000000000000000008152600401610aa690611f6e565b60405180910390fd5b50565b600033905090565b816004600083815260200190815260200160002060006101000a81548173ffffffffffffffffffffffffffffffffffffffff021916908373ffffffffffffffffffffffffffffffffffffffff160217905550808273ffffffffffffffffffffffffffffffffffffffff16610b2d83610681565b73ffffffffffffffffffffffffffffffffffffffff167f8c5be1e5ebec7d5bd14f71427d1e84f3dd0314c0f7b2291e5b200ac8c7c3b92560405160405180910390a45050565b600080610b7f83610681565b90508073ffffffffffffffffffffffffffffffffffffffff168473ffffffffffffffffffffffffffffffffffffffff161480610bc15750610bc08185610969565b5b80610bff57508373ffffffffffffffffffffffffffffffffffffffff16610be7846104a4565b73ffffffffffffffffffffffffffffffffffffffff16145b91505092915050565b8273ffffffffffffffffffffffffffffffffffffffff16610c2882610681565b73ffffffffffffffffffffffffffffffffffffffff1614610c7e576040517f08c379a0000000000000000000000000000000000000000000000000000000008152600401610c7590612169565b60405180910390fd5b600073ffffffffffffffffffffffffffffffffffffffff168273ffffffffffffffffffffffffffffffffffffffff1603610ced576040517f08c379a0000000000000000000000000000000000000000000000000000000008152600401610ce4906121fb565b60405180910390fd5b610cfa8383836001611449565b8273ffffffffffffffffffffffffffffffffffffffff16610d1a82610681565b73ffffffffffffffffffffffffffffffffffffffff1614610d70576040517f08c379a0000000000000000000000000000000000000000000000000000000008152600401610d6790612169565b60405180910390fd5b6004600082815260200190815260200160002060006101000a81549073ffffffffffffffffffffffffffffffffffffffff02191690556001600360008573ffffffffffffffffffffffffffffffffffffffff1673ffffffffffffffffffffffffffffffffffffffff168152602001908152602001600020600082825403925050819055506001600360008473ffffffffffffffffffffffffffffffffffffffff1673ffffffffffffffffffffffffffffffffffffffff16815260200190815260200160002060008282540192505081905550816002600083815260200190815260200160002060006101000a81548173ffffffffffffffffffffffffffffffffffffffff021916908373ffffffffffffffffffffffffffffffffffffffff160217905550808273ffffffffffffffffffffffffffffffffffffffff168473ffffffffffffffffffffffffffffffffffffffff167fddf252ad1be2c89b69c2b068fc378daa952ba7f163c4a11628f55a4df523b3ef60405160405180910390a4610efc838383600161144f565b505050565b60006002600083815260200190815260200160002060009054906101000a900473ffffffffffffffffffffffffffffffffffffffff169050919050565b600073ffffffffffffffffffffffffffffffffffffffff168273ffffffffffffffffffffffffffffffffffffffff1603610fad576040517f08c379a0000000000000000000000000000000000000000000000000000000008152600401610fa490612267565b60405180910390fd5b610fb681611408565b15610ff6576040517f08c379a0000000000000000000000000000000000000000000000000000000008152600401610fed906122d3565b60405180910390fd5b611004600083836001611449565b61100d81611408565b1561104d576040517f08c379a0000000000000000000000000000000000000000000000000000000008152600401611044906122d3565b60405180910390fd5b6001600360008473ffffffffffffffffffffffffffffffffffffffff1673ffffffffffffffffffffffffffffffffffffffff16815260200190815260200160002060008282540192505081905550816002600083815260200190815260200160002060006101000a81548173ffffffffffffffffffffffffffffffffffffffff021916908373ffffffffffffffffffffffffffffffffffffffff160217905550808273ffffffffffffffffffffffffffffffffffffffff16600073ffffffffffffffffffffffffffffffffffffffff167fddf252ad1be2c89b69c2b068fc378daa952ba7f163c4a11628f55a4df523b3ef60405160405180910390a461115760008383600161144f565b5050565b8173ffffffffffffffffffffffffffffffffffffffff168373ffffffffffffffffffffffffffffffffffffffff16036111c9576040517f08c379a00000000000000000000000000000000000000000000000000000000081526004016111c09061233f565b60405180910390fd5b80600560008573ffffffffffffffffffffffffffffffffffffffff1673ffffffffffffffffffffffffffffffffffffffff16815260200190815260200160002060008473ffffffffffffffffffffffffffffffffffffffff1673ffffffffffffffffffffffffffffffffffffffff16815260200190815260200160002060006101000a81548160ff0219169083151502179055508173ffffffffffffffffffffffffffffffffffffffff168373ffffffffffffffffffffffffffffffffffffffff167f17307eab39ab6107e8899845ad3d59bd9653f200f220920489ca2b5937696c31836040516112ba9190611806565b60405180910390a3505050565b6112d2848484610c08565b6112de84848484611455565b61131d576040517f08c379a0000000000000000000000000000000000000000000000000000000008152600401611314906123d1565b60405180910390fd5b50505050565b606060405180602001604052806000815250905090565b606060006001611349846115dc565b01905060008167ffffffffffffffff81111561136857611367611b1e565b5b6040519080825280601f01601f19166020018201604052801561139a5781602001600182028036833780820191505090505b509050600082602001820190505b6001156113fd578080600190039150507f3031323334353637383961626364656600000000000000000000000000000000600a86061a8153600a85816113f1576113f06123f1565b5b049450600085036113a8575b819350505050919050565b60008073ffffffffffffffffffffffffffffffffffffffff1661142a83610f01565b73ffffffffffffffffffffffffffffffffffffffff1614159050919050565b50505050565b50505050565b60006114768473ffffffffffffffffffffffffffffffffffffffff1661172f565b156115cf578373ffffffffffffffffffffffffffffffffffffffff1663150b7a0261149f610ab2565b8786866040518563ffffffff1660e01b81526004016114c19493929190612475565b6020604051808303816000875af19250505080156114fd57506040513d601f19601f820116820180604052508101906114fa91906124d6565b60015b61157f573d806000811461152d576040519150601f19603f3d011682016040523d82523d6000602084013e611532565b606091505b506000815103611577576040517f08c379a000000000000000000000000000000000000000000000000000000000815260040161156e906123d1565b60405180910390fd5b805181602001fd5b63150b7a0260e01b7bffffffffffffffffffffffffffffffffffffffffffffffffffffffff1916817bffffffffffffffffffffffffffffffffffffffffffffffffffffffff1916149150506115d4565b600190505b949350505050565b600080600090507a184f03e93ff9f4daa797ed6e38ed64bf6a1f010000000000000000831061163a577a184f03e93ff9f4daa797ed6e38ed64bf6a1f01000000000000000083816116305761162f6123f1565b5b0492506040810190505b6d04ee2d6d415b85acef81000000008310611677576d04ee2d6d415b85acef8100000000838161166d5761166c6123f1565b5b0492506020810190505b662386f26fc1000083106116a657662386f26fc10000838161169c5761169b6123f1565b5b0492506010810190505b6305f5e10083106116cf576305f5e10083816116c5576116c46123f1565b5b0492506008810190505b61271083106116f45761271083816116ea576116e96123f1565b5b0492506004810190505b60648310611717576064838161170d5761170c6123f1565b5b0492506002810190505b600a8310611726576001810190505b80915050919050565b6000808273ffffffffffffffffffffffffffffffffffffffff163b119050919050565b6000604051905090565b600080fd5b600080fd5b60007fffffffff0000000000000000000000000000000000000000000000000000000082169050919050565b61179b81611766565b81146117a657600080fd5b50565b6000813590506117b881611792565b92915050565b6000602082840312156117d4576117d361175c565b5b60006117e2848285016117a9565b91505092915050565b60008115159050919050565b611800816117eb565b82525050565b600060208201905061181b60008301846117f7565b92915050565b600081519050919050565b600082825260208201905092915050565b60005b8381101561185b578082015181840152602081019050611840565b60008484015250505050565b6000601f19601f8301169050919050565b600061188382611821565b61188d818561182c565b935061189d81856020860161183d565b6118a681611867565b840191505092915050565b600060208201905081810360008301526118cb8184611878565b905092915050565b6000819050919050565b6118e6816118d3565b81146118f157600080fd5b50565b600081359050611903816118dd565b92915050565b60006020828403121561191f5761191e61175c565b5b600061192d848285016118f4565b91505092915050565b600073ffffffffffffffffffffffffffffffffffffffff82169050919050565b600061196182611936565b9050919050565b61197181611956565b82525050565b600060208201905061198c6000830184611968565b92915050565b61199b81611956565b81146119a657600080fd5b50565b6000813590506119b881611992565b92915050565b600080604083850312156119d5576119d461175c565b5b60006119e3858286016119a9565b92505060206119f4858286016118f4565b9150509250929050565b600080600060608486031215611a1757611a1661175c565b5b6000611a25868287016119a9565b9350506020611a36868287016119a9565b9250506040611a47868287016118f4565b9150509250925092565b600060208284031215611a6757611a6661175c565b5b6000611a75848285016119a9565b91505092915050565b611a87816118d3565b82525050565b6000602082019050611aa26000830184611a7e565b92915050565b611ab1816117eb565b8114611abc57600080fd5b50565b600081359050611ace81611aa8565b92915050565b60008060408385031215611aeb57611aea61175c565b5b6000611af9858286016119a9565b9250506020611b0a85828601611abf565b9150509250929050565b600080fd5b600080fd5b7f4e487b7100000000000000000000000000000000000000000000000000000000600052604160045260246000fd5b611b5682611867565b810181811067ffffffffffffffff82111715611b7557611b74611b1e565b5b80604052505050565b6000611b88611752565b9050611b948282611b4d565b919050565b600067ffffffffffffffff821115611bb457611bb3611b1e565b5b611bbd82611867565b9050602081019050919050565b82818337600083830152505050565b6000611bec611be784611b99565b611b7e565b905082815260208101848484011115611c0857611c07611b19565b5b611c13848285611bca565b509392505050565b600082601f830112611c3057611c2f611b14565b5b8135611c40848260208601611bd9565b91505092915050565b60008060008060808587031215611c6357611c6261175c565b5b6000611c71878288016119a9565b9450506020611c82878288016119a9565b9350506040611c93878288016118f4565b925050606085013567ffffffffffffffff811115611cb457611cb3611761565b5b611cc087828801611c1b565b91505092959194509250565b60008060408385031215611ce357611ce261175c565b5b6000611cf1858286016119a9565b9250506020611d02858286016119a9565b9150509250929050565b7f4e487b7100000000000000000000000000000000000000000000000000000000600052602260045260246000fd5b60006002820490506001821680611d5357607f821691505b602082108103611d6657611d65611d0c565b5b50919050565b7f4552433732313a20617070726f76616c20746f2063757272656e74206f776e6560008201527f7200000000000000000000000000000000000000000000000000000000000000602082015250565b6000611dc860218361182c565b9150611dd382611d6c565b604082019050919050565b60006020820190508181036000830152611df781611dbb565b9050919050565b7f4552433732313a20617070726f76652063616c6c6572206973206e6f7420746f60008201527f6b656e206f776e6572206f7220617070726f76656420666f7220616c6c000000602082015250565b6000611e5a603d8361182c565b9150611e6582611dfe565b604082019050919050565b60006020820190508181036000830152611e8981611e4d565b9050919050565b7f4552433732313a2063616c6c6572206973206e6f7420746f6b656e206f776e6560008201527f72206f7220617070726f76656400000000000000000000000000000000000000602082015250565b6000611eec602d8361182c565b9150611ef782611e90565b604082019050919050565b60006020820190508181036000830152611f1b81611edf565b9050919050565b7f4552433732313a20696e76616c696420746f6b656e2049440000000000000000600082015250565b6000611f5860188361182c565b9150611f6382611f22565b602082019050919050565b60006020820190508181036000830152611f8781611f4b565b9050919050565b7f4e487b7100000000000000000000000000000000000000000000000000000000600052601160045260246000fd5b6000611fc8826118d3565b91507fffffffffffffffffffffffffffffffffffffffffffffffffffffffffffffffff8203611ffa57611ff9611f8e565b5b600182019050919050565b7f4552433732313a2061646472657373207a65726f206973206e6f74206120766160008201527f6c6964206f776e65720000000000000000000000000000000000000000000000602082015250565b600061206160298361182c565b915061206c82612005565b604082019050919050565b6000602082019050818103600083015261209081612054565b9050919050565b600081905092915050565b60006120ad82611821565b6120b78185612097565b93506120c781856020860161183d565b80840191505092915050565b60006120df82856120a2565b91506120eb82846120a2565b91508190509392505050565b7f4552433732313a207472616e736665722066726f6d20696e636f72726563742060008201527f6f776e6572000000000000000000000000000000000000000000000000000000602082015250565b600061215360258361182c565b915061215e826120f7565b604082019050919050565b6000602082019050818103600083015261218281612146565b9050919050565b7f4552433732313a207472616e7366657220746f20746865207a65726f2061646460008201527f7265737300000000000000000000000000000000000000000000000000000000602082015250565b60006121e560248361182c565b91506121f082612189565b604082019050919050565b60006020820190508181036000830152612214816121d8565b9050919050565b7f4552433732313a206d696e7420746f20746865207a65726f2061646472657373600082015250565b600061225160208361182c565b915061225c8261221b565b602082019050919050565b6000602082019050818103600083015261228081612244565b9050919050565b7f4552433732313a20746f6b656e20616c7265616479206d696e74656400000000600082015250565b60006122bd601c8361182c565b91506122c882612287565b602082019050919050565b600060208201905081810360008301526122ec816122b0565b9050919050565b7f4552433732313a20617070726f766520746f2063616c6c657200000000000000600082015250565b600061232960198361182c565b9150612334826122f3565b602082019050919050565b600060208201905081810360008301526123588161231c565b9050919050565b7f4552433732313a207472616e7366657220746f206e6f6e20455243373231526560008201527f63656976657220696d706c656d656e7465720000000000000000000000000000602082015250565b60006123bb60328361182c565b91506123c68261235f565b604082019050919050565b600060208201905081810360008301526123ea816123ae565b9050919050565b7f4e487b7100000000000000000000000000000000000000000000000000000000600052601260045260246000fd5b600081519050919050565b600082825260208201905092915050565b600061244782612420565b612451818561242b565b935061246181856020860161183d565b61246a81611867565b840191505092915050565b600060808201905061248a6000830187611968565b6124976020830186611968565b6124a46040830185611a7e565b81810360608301526124b6818461243c565b905095945050505050565b6000815190506124d081611792565b92915050565b6000602082840312156124ec576124eb61175c565b5b60006124fa848285016124c1565b9150509291505056fea264697066735822122085a62f56d079b3e5ed5e18b756c8f92d9a013d378205a61a7d4d757eea10d87364736f6c63430008140033",
    "linkReferences": {},
    "deployedLinkReferences": {}
}